:100000000C9436000C9462080C948F080C945E00DB
:100010000C945E000C945E000C945E000C945E00E8
:100020000C945E000C945E000C945E000C945E00D8
:100030000C945E000C945E000C945E000C945E00C8
:100040000C9401060C945E000C94C4050C945E00A4
:100050000C945E000C945E000C945E000C945E00A8
:100060000C9449030C945E004202D50611241FBE75
:10007000CFEFD8E0DEBFCDBF11E0A0E0B1E0EEE70A
:10008000F6E102C005900D92A034B107D9F711E056
:10009000A0E4B1E001C01D92AC3FB107E1F710E070
:1000A000CCE6D0E004C02297FE010E94390BC8368E
:1000B000D107C9F70E947C050C943D0B0C940000FD
:1000C0000F931F93CF93DF93689F8001699F100D5B
:1000D000789F100D1124C8010E947C00EC0100974C
:1000E00029F060E070E0A8010E947B01CE01DF9161
:1000F000CF911F910F910895CF93DF93BC01823070
:10010000910510F462E070E0A091FA01B091FB015A
:10011000ED01E0E0F0E040E050E021C0888199810D
:100120008617970769F48A819B81309719F093832A
:10013000828304C09093FB018093FA01FE0133C0D7
:100140006817790738F44115510519F08417950798
:1001500008F4AC01FE018A819B819C01E901209792
:10016000E9F641155105A1F1CA01861B970B0497C9
:1001700008F4BA01E0E0F0E029C08D919C9111975C
:1001800084179507F1F46417750779F4ED018A81F6
:100190009B81309719F09383828304C09093FB0175
:1001A0008093FA01FD0132964CC0CA01861B970B61
:1001B000FD01E80FF91F6193719302978D939C9352
:1001C00040C0FD01828193819C01D9011097A9F65D
:1001D0008091F8019091F901892B41F480913001CF
:1001E000909131019093F9018093F801409132018F
:1001F000509133014115510541F44DB75EB78091DF
:100200002E0190912F01481B590B2091F80130913C
:10021000F901CA01821B930B8617970780F0AB0187
:100220004E5F5F4F8417950750F0420F531F509356
:10023000F9014093F801F9016193719302C0E0E084
:10024000F0E0CF01DF91CF910895CF93DF93009736
:1002500009F44EC0EC0122971B821A82A091FA0188
:10026000B091FB01109701F140E050E0AC17BD07E1
:1002700000F1BB83AA83FE0121913191E20FF31FAC
:10028000AE17BF0771F48D919C911197280F391FFC
:100290002E5F3F4F39832883FD01828193819B83A9
:1002A0008A834115510569F4D093FB01C093FA018B
:1002B0001FC0FD0182819381AD01009711F0DC0127
:1002C000D5CFFA01D383C28321913191E20FF31F7D
:1002D000CE17DF0769F488819981280F391F2E5FB7
:1002E0003F4FFA01318320838A819B8193838283EC
:1002F000DF91CF910895DC0101C06D9341505040D2
:10030000E0F708950F931F938AE491E00E948F0213
:100310008AE491E00E9429028230D0F362E370E027
:1003200080E090E00E9471068AE491E00E942F0232
:10033000182F00E08AE491E00E942F02080F111D9F
:10034000C8011F910F910895EF92FF920F931F9391
:100350007A010AE411E0C8010E941F02C801B70136
:100360000E946B02C8010E946E021F910F91FF90C4
:10037000EF900895CF92DF92EF92FF920F931F9329
:100380007B0169010AE411E0C801BA010E941F0261
:10039000C801B7010E946B02C801B6010E946B023E
:1003A000C8010E946E021F910F91FF90EF90DF90A5
:1003B000CF900895CF92DF92EF92FF920F931F9309
:1003C0008C017B016A01A70120EA30E00E94BA019A
:1003D000C801B701A7012AEA30E00E94BA01C801AA
:1003E000B701A70125EA30E00E94BA01C801B701B0
:1003F000A70196010E94BA011F910F91FF90EF9003
:10040000DF90CF900895233629F0293641F420E576
:1004100030E002C021E530E00E94BA01089582E791
:1004200091E060E071E00E94E50682E791E00E94C1
:10043000FD0608958AE491E00E949202089581E009
:100440008093490160934401109247011092480142
:1004500008958091430190914201891B08959091E4
:10046000420180914301981710F080E00895E091D7
:100470004001F0914101E90FF11D80819F5F909350
:10048000420108950895DF93CF930F92CDB7DEB761
:100490006983809149018823A9F0809148018032C5
:1004A000B0F480914701E0914501F0914601E80FD9
:1004B000F11D6083809147018F5F80934701809396
:1004C000480105C0CE01019661E00E942C030F9007
:1004D000CF91DF9108950E944302089560914501F4
:1004E00070914601809144014091480121E00E94B1
:1004F000E7021092470110924801109249010895B5
:10050000862F6091400170914101413208F040E234
:100510000E94B102109242018093430108950E940B
:100520008002089580E290E061E070E00E94600047
:100530008093400190934101109242011092430137
:1005400080E290E061E070E00E94600080934501ED
:100550009093460110924701109248010E94CB04EB
:100560000895982F413210F040E02FC080914B0148
:100570008823E1F781E080934B018FEF80935C014A
:100580001092530140935401990F916090934C0144
:1005900085EE8093BC0080914B018130E1F3809126
:1005A0005301841710F440915301A0915101B0916F
:1005B000520120E030E007C0FB01E20FF31F8D91F4
:1005C00080832F5F3F4F2417B8F3842F08951F9324
:1005D000582F122F413210F081E03CC080914B0126
:1005E0008823E1F782E080934B018FEF80935C01D9
:1005F0001092530140935401A0915101B0915201C6
:10060000FB0102C081918D938E2F861B8417D0F33E
:10061000852F90E0880F991F80934C0185EE809381
:10062000BC00112321F080914B018230E1F38091D5
:100630005C018F3F11F480E00DC080915C0180323D
:1006400011F482E007C080915C01803311F084E0F6
:1006500001C083E01F910895482F613210F081E0BE
:10066000089580914B01843011F082E008956093E9
:100670005801A0915501B0915601842F9C01F901B8
:1006800002C081918D938E2F841B8617D0F380E05A
:1006900008951F920F920FB60F9211242F933F933C
:1006A0004F935F936F937F938F939F93AF93BF937A
:1006B000EF93FF938091B90090E0887F907080362F
:1006C000910509F4E2C081369105CCF58832910597
:1006D00009F47BC089329105B4F48031910509F4A5
:1006E0006FC0813191053CF4009709F438C1089737
:1006F00009F040C165C08831910509F466C0809752
:1007000009F038C17FC08034910509F4A3C0813459
:10071000910544F48033910509F47FC0C89709F02E
:1007200029C186C08035910509F486C088359105B8
:1007300009F495C08834910509F01CC19EC0883920
:10074000910509F404C189399105ECF488379105C4
:1007500009F49BC0893791054CF48836910509F45A
:1007600094C08037910509F005C18FC08838910584
:1007700009F4EDC08039910509F48DC080389105E8
:1007800009F0F8C088C0803B910509F4B2C0813BF4
:1007900091054CF4803A910509F491C0883A91058D
:1007A00009F0E8C0A6C0803C910509F4D4C0883C9B
:1007B000910509F4D0C0883B910509F0DBC0B1C0B8
:1007C00080914C018093BB00C0C0909153018091F7
:1007D0005401981778F490915301E0915101F091F0
:1007E0005201E90FF11D80818093BB009F5F9093C0
:1007F0005301ABC085ED8093BC008091BC0084FDAB
:10080000FCCFB6C080E280935C0185ED8093BC0094
:100810008091BC0084FDFCCFABC080E380935C0181
:1008200085ED8093BC008091BC0084FDFCCFA0C00E
:1008300088E380935C018FC0809153019091BB004D
:10084000E0915101F0915201E80FF11D90838F5F0B
:1008500080935301909153018091540174C0809111
:1008600053019091BB00E0915101F0915201E80FCA
:10087000F11D90838F5F8093530185ED8093BC00C1
:100880008091BC0084FDFCCF73C083E080934B015A
:1008900010925B015AC080915B01803208F057C012
:1008A00080915B019091BB00E0915901F0915A0158
:1008B000E80FF11D90838F5F80935B0146C08091AC
:1008C0005B01803248F480915B01E0915901F09125
:1008D0005A01E80FF11D108260915B01E0914F0118
:1008E000F09150018091590190915A0170E0099561
:1008F00032C084E080934B0110925701109258014E
:10090000E0914D01F0914E010995809158018823A5
:1009100041F481E080935801E0915501F091560136
:10092000108290915701E0915501F0915601E90F25
:10093000F11D80818093BB009F5F90935701909140
:10094000570180915801981710F485EC01C085E893
:100950008093BC000FC085EC8093BC0009C010924E
:100960005C0185ED8093BC008091BC0084FDFCCFD0
:1009700010924B01FF91EF91BF91AF919F918F9199
:100980007F916F915F914F913F912F910F900FBE8B
:100990000F901F90189510924B01449A459AE9EBDD
:1009A000F0E080818E7F808380818D7F808388E4EA
:1009B0008093B80085E48093BC0080E290E061E021
:1009C00070E00E946000809351019093520180E298
:1009D00090E061E070E00E94600080935501909388
:1009E000560180E290E061E070E00E946000809338
:1009F000590190935A0108950F931F930DE511E04B
:100A00004091340150913501C80160E070E02091BF
:100A100038010E94030266E470E080E090E00E94EA
:100A200071066091340170913501C80142E050E0D7
:100A30000E94A4016091340170913501C80142E027
:100A400050E00E948201AA2797FDA095BA2FBC0111
:100A5000CD010E94C00960935E0170935F01809395
:100A600060019093610102E711E0C80169E171E062
:100A70000E94E50640915E0150915F016091600126
:100A800070916101C8010E945E08C80164E271E0D2
:100A90000E94E506C8010E94FD0666E470E080E061
:100AA00090E00E9471061F910F9108958DE591E0ED
:100AB0000E941A0240913401509135018DE591E078
:100AC00060E070E00E94DA01809136019091370178
:100AD000892B41F082E791E040E855E260E070E068
:100AE0000E94E00680913401909135010496909324
:100AF00035018093340108950E949B060E9456059B
:100B00000E94FC04FDCFEF92FF920F931F937B0195
:100B10008C0122E030E040E050E00E94080B205CB5
:100B20003D4B404F5F4FCA01B901A80197010E9498
:100B3000080BC901DA010197A109B109292F3A2F40
:100B40004B2F552747FD5A950196A11DB11D2093A6
:100B5000C50081508093C400E1ECF0E080818061A9
:100B600080838081886080838081806880831F91FA
:100B70000F91FF90EF900895982F8091C00085FF0E
:100B8000FCCF9093C60008951F920F920FB60F925C
:100B900011242F933F934F935F936F937F938F9382
:100BA0009F93AF93BF93EF93FF934091C600E09163
:100BB0006201F0916301CF01019660E870E00E944C
:100BC000D30A9C018091640190916501281739072F
:100BD00039F0E858FE4F408330936301209362015F
:100BE000FF91EF91BF91AF919F918F917F916F9105
:100BF0005F914F913F912F910F900FBE0F901F90DB
:100C000018951F920F920FB60F9211242F938F9366
:100C10009F93AF93BF938091660190916701A091DC
:100C20006801B09169010196A11DB11D8093660113
:100C300090936701A0936801B093690180916A0164
:100C400090916B01A0916C01B0916D018050904C1E
:100C5000AF4FBF4F80936A0190936B01A0936C01DB
:100C6000B0936D0127C080916A0190916B01A091B2
:100C70006C01B0916D0180589E43A040B0408093BC
:100C80006A0190936B01A0936C01B0936D01809108
:100C90006E0190916F01A0917001B0917101019668
:100CA000A11DB11D80936E0190936F01A0937001FF
:100CB000B093710180916A0190916B01A0916C01D8
:100CC000B0916D0181589E43A040B04060F6BF9145
:100CD000AF919F918F912F910F900FBE0F901F900A
:100CE0001895EF92FF920F931F937B018C018FB7A2
:100CF000F89440916E0150916F0160917001709174
:100D000071018FBF2FB7F89480916E0190916F01A0
:100D1000A0917001B09171012FBF841B950BA60BA0
:100D2000B70BE816F9060A071B0760F71F910F912A
:100D3000FF90EF900895789484B5826084BD84B567
:100D4000816084BD85B5826085BD85B5816085BDC6
:100D5000EEE6F0E0808181608083E1E8F0E0808170
:100D600082608083808181608083E0E8F0E0808120
:100D700081608083E1EBF0E0808184608083E0EB40
:100D8000F0E0808181608083EAE7F0E08081846028
:100D90008083808182608083808181608083808184
:100DA000806880831092C10008958DE391E0909354
:100DB0007301809372010895862F0E94BC050895E7
:100DC000CB01BA010E94830508950F931F93CF931F
:100DD000DF938C01EB0109C02196D801ED91FC91C4
:100DE0000190F081E02DC801099568816623A1F783
:100DF000DF91CF911F910F9108950F931F938C0155
:100E0000DC01ED91FC910190F081E02D6DE0099500
:100E1000D801ED91FC910190F081E02DC8016AE0CC
:100E200009951F910F9108952F923F924F925F92D3
:100E30006F927F928F929F92AF92BF92CF92DF92EA
:100E4000EF92FF920F931F93DF93CF93CDB7DEB74F
:100E5000A0970FB6F894DEBF0FBECDBF1C016A018C
:100E60007B01411551056105710549F4DC01ED91E6
:100E7000FC910190F081E02D60E3099554C0882435
:100E800099245401422E55246624772401E010E071
:100E90000C0F1D1F080D191DC701B601A3019201FA
:100EA0000E94E60AF80160830894811C911CA11C31
:100EB000B11CC701B601A30192010E94E60AC90153
:100EC000DA016C017D01C114D104E104F104F1F6F1
:100ED00081E0E82EF12CEC0EFD1EE80CF91C3E0121
:100EE0000894611C711CD501C4010197A109B109C5
:100EF0006C01C818D90814C0F601EE0DFF1D608101
:100F00006A3010F4605D01C0695CD101ED91FC9123
:100F10000190F081E02DC10109950894E108F108E4
:100F20006E147F0449F7A0960FB6F894DEBF0FBE8B
:100F3000CDBFCF91DF911F910F91FF90EF90DF9088
:100F4000CF90BF90AF909F908F907F906F905F9069
:100F50004F903F902F9008952AE00E941407089523
:100F6000EF92FF920F931F93CF93DF93EC017A01DF
:100F70008B0177FF0FC0E881F9810190F081E02DAE
:100F80006DE2099510950095F094E094E11CF11C38
:100F9000011D111DCE01B801A7012AE00E9414070E
:100FA000DF91CF911F910F91FF90EF9008959F9245
:100FB000AF92BF92CF92DF92EF92FF920F931F9367
:100FC000CF93DF93EC017A018B01922ECB01BA0112
:100FD00020E030E040E050E00E942109882364F4E2
:100FE000E881F9810190F081E02DCE016DE2099553
:100FF00017FB109517F9109520E030E040E05FE313
:10100000AA240BC0CA01B90120E030E040E251E45B
:101010000E9425099B01AC01A394A91498F3C8016F
:10102000B7010E94BD085B016C010E9492097B011F
:101030008C01CE01B801A7010E94AC07992029F0CC
:10104000CE016CE271E00E94E506C801B7010E9482
:10105000BE099B01AC01C601B5010E94BC0820C0BD
:1010600020E030E040E251E40E94700A7B018C01F4
:101070000E948D095B016C01CC24B7FCC094DC2C70
:10108000CE01B601A5010E94B007C601B5010E94BC
:10109000C0099B01AC01C801B7010E94BC089A9429
:1010A0009920F1F6DF91CF911F910F91FF90EF9072
:1010B000DF90CF90BF90AF909F90089522E00E9464
:1010C000D70708951F920F920FB60F9211242F93F6
:1010D0003F934F935F936F937F938F939F93AF93C0
:1010E000BF93EF93FF938091740190917501892BC9
:1010F00029F0E0917401F09175010995FF91EF914C
:10110000BF91AF919F918F917F916F915F914F911F
:101110003F912F910F900FBE0F901F9018951F9227
:101120000F920FB60F9211242F933F934F935F931B
:101130006F937F938F939F93AF93BF93EF93FF939F
:101140008091760190917701892B29F0E0917601C9
:10115000F09177010995FF91EF91BF91AF919F9128
:101160008F917F916F915F914F913F912F910F9050
:101170000FBE0F901F9018955058BB27AA270ED06E
:1011800075C166D130F06BD120F031F49F3F11F47E
:101190001EF45BC10EF4E095E7FB51C1E92F77D156
:1011A00080F3BA17620773078407950718F071F484
:1011B0009EF58FC10EF4E0950B2EBA2FA02D0B01DA
:1011C000B90190010C01CA01A0011124FF27591B8C
:1011D00099F0593F50F4503E68F11A16F040A22F92
:1011E000232F342F4427585FF3CF46953795279503
:1011F000A795F0405395C9F77EF41F16BA0B620B02
:10120000730B840BBAF09150A1F0FF0FBB1F661F48
:10121000771F881FC2F70EC0BA0F621F731F841F8B
:1012200048F4879577956795B795F7959E3F08F0B1
:10123000B3CF9395880F08F09927EE0F9795879570
:101240000895D9D008F481E008950CD00FC107D1DA
:1012500040F0FED030F021F45F3F19F0F0C05111A2
:1012600039C1F3C014D198F39923C9F35523B1F3CD
:10127000951B550BBB27AA2762177307840738F005
:101280009F5F5F4F220F331F441FAA1FA9F333D064
:101290000E2E3AF0E0E830D091505040E695001C18
:1012A000CAF729D0FE2F27D0660F771F881FBB1FD4
:1012B000261737074807AB07B0E809F0BB0B802DAE
:1012C000BF01FF2793585F4F2AF09E3F510568F0FA
:1012D000B6C000C15F3FECF3983EDCF3869577958E
:1012E0006795B795F7959F5FC9F7880F911D9695FC
:1012F000879597F90895E1E0660F771F881FBB1F58
:10130000621773078407BA0720F0621B730B840B04
:10131000BA0BEE1F88F7E095089504D06894B111D8
:10132000D9C00895BCD088F09F5790F0B92F992765
:10133000B751A0F0D1F0660F771F881F991F1AF0E0
:10134000BA95C9F712C0B13081F0C3D0B1E00895A9
:10135000C0C0672F782F8827B85F39F0B93FCCF32A
:10136000869577956795B395D9F73EF490958095D6
:10137000709561957F4F8F4F9F4F0895E89409C0F6
:1013800097FB3EF490958095709561957F4F8F4FB8
:101390009F4F9923A9F0F92F96E9BB279395F695CE
:1013A000879577956795B795F111F8CFFAF4BB0F4C
:1013B00011F460FF1BC06F5F7F4F8F4F9F4F16C0B0
:1013C000882311F096E911C0772321F09EE8872F3A
:1013D000762F05C0662371F096E8862F70E060E0F6
:1013E0002AF09A95660F771F881FDAF7880F96956F
:1013F000879597F90895990F0008550FAA0BE0E813
:10140000FEEF16161706E807F907C0F012161306C6
:10141000E407F50798F0621B730B840B950B39F406
:101420000A2661F0232B242B252B21F408950A266C
:1014300009F4A140A6958FEF811D811D089597F9AC
:101440009F6780E870E060E008959FEF80EC08956A
:1014500000240A9416161706180609060895002493
:101460000A9412161306140605060895092E03940D
:10147000000C11F4882352F0BB0F40F4BF2B11F481
:1014800060FF04C06F5F7F4F8F4F9F4F089557FDE0
:101490009058440F551F59F05F3F71F04795880FE2
:1014A00097FB991F61F09F3F79F087950895121679
:1014B00013061406551FF2CF4695F1DF08C0161625
:1014C00017061806991FF1CF8695710561050894D6
:1014D0000895E894BB2766277727CB0197F90895ED
:1014E0000BD0C4CFB5DF28F0BADF18F0952309F090
:1014F000A6CFABCF1124EECFCADFA0F3959FD1F3D7
:10150000950F50E0551F629FF001729FBB27F00DB1
:10151000B11D639FAA27F00DB11DAA1F649F662706
:10152000B00DA11D661F829F2227B00DA11D621F55
:10153000739FB00DA11D621F839FA00D611D221F0F
:10154000749F3327A00D611D231F849F600D211DF3
:10155000822F762F6A2F11249F5750408AF0E1F096
:1015600088234AF0EE0FFF1FBB1F661F771F881FDF
:1015700091505040A9F79E3F510570F060CFAACF1F
:101580005F3FECF3983EDCF3869577956795B795CA
:10159000F795E7959F5FC1F7FE2B880F911D9695F4
:1015A000879597F9089597FB092E07260AD077FDAE
:1015B00004D049D006D000201AF4709561957F4F71
:1015C0000895F6F7909581959F4F0895A1E21A2E00
:1015D000AA1BBB1BFD010DC0AA1FBB1FEE1FFF1FD7
:1015E000A217B307E407F50720F0A21BB30BE40B27
:1015F000F50B661F771F881F991F1A9469F760956E
:101600007095809590959B01AC01BD01CF01089527
:1016100097FB092E05260ED057FD04D0D7DF0AD040
:10162000001C38F450954095309521953F4F4F4F11
:101630005F4F0895F6F790958095709561957F4F6F
:101640008F4F9F4F0895AA1BBB1B51E107C0AA1FD4
:10165000BB1FA617B70710F0A61BB70B881F991F53
:101660005A95A9F780959095BC01CD010895EE0F8C
:0E167000FF1F0590F491E02D0994F894FFCF30
:10167E00496E76616C696420556E69747320456E8F
:10168E0074657265642E2E2E0044697374616E63E8
:10169E00653A200020696E63686573002E00200095
:1016AE00FC010000F80001006900000000DC0600EB
:00000001FF
